:2000000000802020193F00002314000023140000000000000000000000000000000000005A
:2000200000000000000000000000000023140000000000000000000023140000231400001B
:200040002314000023140000231400002314000023140000231400002314000023140000E8
:2000600000000000231400002314000000000000000000002314000023140000613800000B
:20008000053C0000231400002314000023140000231400002314000000000000000000000C
:2000A00023140000231400000000000000000000231400000000000023140000231400002D
:2000C000F0B5FFB08EB0049306920646929802900025E84305908C913468204603F0C5FE9D
:2000E00021188B9503918C4200D3BBE00020879087A908738890059889902F46049D207879
:20010000002800D1AFE0252805D0641C34600699A8477F1CF3E78B97601C306087AC204657
:20012000314600F0A7F88CAA2046314600F0BFF8306801787A2925D0682919D06A2908D071
:200140006C290ED0742908D04C2922D1879980221BE087990122D20217E0879901225203EC
:2001600013E0427887996C2A64D10122120205E042788799682A60D101225202114387914B
:20018000801C05E08799012212030A438792401C0178441C346087A8017373291FD06E2992
:2001A00029D1879832490840202850D040283CD001214A03904238D04A02904242D0CA0242
:2001C000904205D00A0390422FD0090288422CD1F8178C9904C98C91176050603BE087A839
:2001E0000078400619D4009587A88CAA8BAB069900F01DF92FE007AD87A98CAA284600F0F8
:200200006DF9024628460699029B9847411C059D00D0C5198B9503991FE0009587A88CAA45
:200220008BAB069900F09FF815E08C9802C88C900F6010E0401C402201E0401C2022114373
:200240008791A5E78C9802C88C900F7003E08C9802C88C900F8003998B9D681C00D042E7B4
:20026000059F00E02F4638467FB00EB0F0BDC046603F000010B50A681378302B0FD0232B7E
:2002800007D02B2B09D02D2B05D0202B0ED1042306E0082304E0012302E0022300E01023A7
:2002A00004681C430460521C0A60E5E710BDFEB516460D460446086802782A2A10D130683B
:2002C000011D316000686060002805D54042606020680121014321602868471C2F6017E01B
:2002E0000021303A092A08D84218531C2B60435C6F467B545278491CF3E76A460023535466
:2003000012784718002A03D0684603F02DFB606038782E2826D1781C286079782A2908D138
:200320003068011D31600068A0602868401C2860FEBD00203039092908D839188A1C2A60C3
:200340004A786B461A548978401CF3E76A46002111541078002804D0684603F005FBA0602A
:20036000FEBDA160FEBDF0B587B01E460C9F13681C1D14601D68002D3BD00491069084681F
:20038000002C04D4284603F059FD844203D3284603F054FD044606984068A042039000DC73
:2003A000204601463068019140180296306005940398A0420EDD06980078C0070AD1059890
:2003C00001990E1A0024B44204DA20200499B847641CF8E70026049C069805998E420BDA71
:2003E0002868010A19D12D1DC0B22146B847761CF2E70020B84718E00599039A8A4214DDDC
:200400000078C00711D00198451A0024AC420CDA20200499B847641CF8E70020C0430299D3
:20042000086003F069FD5821016007B0F0BDF0B585B00C4606460A9D1068011D116000682F
:200440000490002844D00393B768002F04D4049803F00BFD874203D3049803F006FD0746FB
:2004600002967268BA42114600DC3946039B18680091401818600192BA420FDD0298007850
:20048000C0070BD10098C01B039000260398864204DA20202146A847761CF7E70026BE4220
:2004A00005DA0498805D2146A847761CF7E70198B84210DD02980078C0070CD00098C61B70
:2004C0000027B74207DA20202146A8477F1CF8E700202146A84705B0F0BDC046F0B589B04F
:2004E00001920F460446FF210846FA30251878680290002607960391FE31202220460092C3
:2005000003F0ACFC7F20800006942118089104952E713D46387B0246613A172A2AD80123FD
:2005200093402C46B44D2B42254608D007A908AA2846019B00F066F900260596B3E0712520
:200540002B42254622D1022A14D1019B1868021D1A600068C2B2534253410593039AFC32A2
:20056000069B9A18089208702868022188432860002698E001464539032907D3252860D02A
:20058000412803D058280596D0D08DE0019A1068C11D0720814308460830106005C9D14343
:2005A0002F7B4900490D0BD17B3F944911400143049C2CD01920C1438F4234D36E2033E098
:2005C000002A01D4114602E00121C9075140D60F002205923A46413A062A0BD9613F062FDE
:2005E00061D8C0467F443F797F00BF440B5C5C5C3B3631007A441279520097440354545489
:20060000332E290008AB2A4600F05CFB4BE0002311461A46059302F0B7FE1921C9438F428B
:2006200025D3662224E04E20E0708F4201D3612100E04121A17008946070002005900226B5
:2006400031E0002006994870252008700120A1E008AB2A4600F046FC25E008AB2A4602F044
:2006600075FF20E008AB2A4601F0B2FA1BE04622E2708F4201D36E2200E04E22A2708F4229
:2006800001D3692100E0492161703F21C900069A51180891002803D02D202070042602E032
:2006A0002B2020700326287B012701466F39092904D801228A4052490A4201D158286BD10C
:2006C000049B029C04972946069F3D1908980C460978C90707D1191D091A62689142069F22
:2006E00001DC691A4F1C411C0398430000263846324603F0CFFA08900599002903D0411C8D
:200700000891067000E00146A94206D8481E691A491C202203F0A2FB2E702078C00605D4E5
:200720000698391A202203F099FB2EE0069887422BD00698391A3026324603F08FFB0798B4
:200740004142414104980140012905D12078400702D43846069905E03878069A511C1070C3
:20076000781C3E70227B412A0CD0582A05D0612A08D0782A01D0702A07D123781B0701D422
:20078000612A02D142784A704670069803F06DFB0599401809B0F0BD002E09D0012E049BA7
:2007A000029C8FD10120079029680220084007E0079A296802200840002A09D0049B029CC5
:2007C00008994A1E08922D220A704742474179E70028049B029C08D1480700D472E70898E2
:2007E000411E0891009901706CE70898411E08912B210170002765E708C19000FFFF0F0076
:2008000043020000F8B514460F4605468068002804D4286810218843286001E00120A860E6
:20082000287B1026582808D0782806D0702804D06F2801D1082600E00A262846194600F041
:2008400055F8AA68002A09D102460A4306D12878000749D52B7B0020024612E02B7B642BCF
:2008600003D1642300290BD504E0692B08D1002906D5692301223A60002240428A4100E027
:200880000A4600941146324600F0B0F8A968884206DA401C21684A1E226030220A70F5E7DB
:2008A000287B582803D0782801D070280FD1297809070CD5702800D1782021684A1E226053
:2008C00008702068411E216030210170287B6F280AD12878000707D520684178302903D071
:2008E000411E216030210170F8BDC04610B5037B702B05D10868021D0A60006800226FE015
:200900000068384A024001204403A24222D0402A20D00402A24230D04402A24246D0C40223
:20092000A2422AD00403A24214D0202A12D100221C46643C142C06D8A0402B4C204204D10D
:20094000212420423ED1582B49D10868031D0B60008845E000221C46643C142C06D8A0407A
:20096000214C204204D1212420422BD1582B36D10868031D0B60006832E01A46643A142AF5
:2009800006D89040184A104206D12122104203D10020582B024623D10868C21D072082439B
:2009A0001046083008601068526819E000221C46643C142C0CD8A0400B4C20420AD1212415
:2009C000204205D00868021D0A600068C21707E0582B04D10868031D0B60007800E01046BE
:2009E000114610BD603F000000081200FEB501920D460646582B01D0174800E015480090B5
:200A0000089802903046284305D1029A1068411E116030210170019C3046284313D0304670
:200A20002946224600F01AF807460D46224603F01FF9301A0099085C029B19684A1E1A6083
:200A400008703E46E8E70298006803F00EFA401EFEBDC04696400000A740000080B5102A83
:200A600006D0082A09D1C0084A078018C90880BD00090A078018090980BD002904D111467F
:200A800002F052FF002180BD002303F0A1F980BDF0B587B0059314460D4606460D990C9811
:200AA00002900F4602F04CFE069001963088049421888842039501D200250AE0401A03F05C
:200AC0004FF802460B4603CD01F0EEFB02F038FE0546284603F0BAF8029A3E463B4602F073
:200AE00071FC00280698019C00D1284605990880608804994988884201D200250CE0401A63
:200B000003F02EF802460B4603998868C96801F0CBFB02F015FE0546029F284603F096F8CF
:200B20003A46334602F04EFC0028069800D1284605994880A08804998988884201D200257D
:200B40000CE0401A03F00CF802460B4603990869496901F0A9FB02F0F3FD0546284603F0DD
:200B600075F83A46334602F02DFC0028069800D1284605998880E0880499C988884201D256
:200B800000250CE0401A02F0EBFF02460B4603998869C96901F088FB02F0D2FD05462846C8
:200BA00003F054F83A46334602F00CFC0028069800D128460599C880208904990989884276
:200BC00001D200250CE0401A02F0CAFF02460B460399086A496A01F067FB02F0B1FD054684
:200BE000284603F033F83A46334602F0EBFB0028069800D128460599088160890499498914
:200C0000884201D200250CE0401A02F0A9FF02460B460399886AC96A01F046FB02F090FD27
:200C20000546284603F012F83A46334602F0CAFB0028069800D1284605994881A08904991C
:200C40008989884201D200250CE0401A02F088FF02460B460399086B496B01F025FB02F0A2
:200C60006FFD0546284602F0F1FF3A46334602F0A9FB0028069800D1284605998881E089C9
:200C80000499C989884201D200240CE0401A02F067FF02460B460399886BC96B01F004FBBA
:200CA00002F04EFD0446204602F0D0FF3A46334602F088FB002800D1069405980699C18107
:200CC00007B0F0BDF0B5A5B0049308920E46074600240A947E4D22462B4602F069FB002800
:200CE00013D100247B4D3846314622462B4602F055FB002809D1002238463146134602F0B0
:200D000039FB00283C46354607D10AAA2046294602F0C2FB0A98401E0A900899087B0BAEF3
:200D2000412801D06D4800E06B4809908868019030200390307000220792204629461346AB
:200D400002F022FB01210028029101D0C8074540771C20462946079A134602F00BFB002800
:200D60000DD124AA2046294602F096FB249801210A1A2046294601F029FD04460D4620467E
:200D8000294602F0DDFC06463946059702F0B2FB0690304602F0E4FE03F096F804460D4615
:200DA0000198471C20D3059806994618002220462946134602F0DEFA002848D100222046C7
:200DC0002946474B01F070FA04460D4602F0B8FC0999095C771C317002F0C2FE03F074F828
:200DE00004460D463E46E1E70BA806994618002F16D07F1E002220462946394B01F054FAEE
:200E000004460D4602F09CFC0999095C3246761C517002F0A5FE03F057F804460D46E6E798
:200E20003178099C204602F0DDFF001B08280EDB0196741E089D079F099E2178304602F0E0
:200E4000D1FF801B0E2805DD2770641EF5E7089D079F04E00999081840782070019E37709B
:200E60000A98297B4129049C01D0702100E05021069E059F224602F0EBFBAA68501C04D194
:200E8000384602F0F2FF421EAA6038463146234602F04EFEA8680028029A02D128680007AD
:200EA000C20F38463146234602F0FEF9287B412801D0782000E0582021684A1E2260087062
:200EC0002068411E21600399017025B0F0BDC0460000F07F0000F0FF96400000A7400000FA
:200EE00000003040F0B5A3B003930F46044604929168002903D0002904D5062100E001219F
:200F00000498816007910AA83021089101700025204639462A462B4602F036FA0121002858
:200F2000059101D0C8074740624E20463946604A334602F047FA002809D000222046394601
:200F40005E4B00F0D5FE04460F466D1CEDE75A4E0022204639460992134602F00BFA002867
:200F600011D1002220463946334602F00DFA002809D0002220463946504B01F095F90446AA
:200F80000F466D1EE4E702950AA8451C2046394602F0D6FB0695294602F0ACFA0799884248
:200FA000019004DD481C0AA90A18085C1FE0C9430E180AA90D18681C07902046394602F027
:200FC000BFFB02F0CDFD02460B462046394600F05FF90022394B01F067F904460F4602F04D
:200FE000AFFB079A30306870761C1546E3D3C0B23528039E049F029B099D0FD31446501ECB
:201000000178491CCAB201703A2A03D330210170401EF5E70AA98842224640D00198C41865
:2010200015700220C043844202DBB868844207DD601E397B891EC9B2324602F009FB0124B2
:20104000069802F012FF401E0599A0421ADB0028089A01D4069A125C1346303B5D1EAB4144
:20106000C9431943C90705D13978090702D40025059905E031684B1E33600A7001250021CD
:20108000401EE2E73868082202402A43501E824106982146334602F007F923B0F0BD501E21
:2010A000002101700198C018441C0AA80690B8E70000C0FFFFFFDF410000F03F0000244076
:2010C000F0B581B002F0D8FE69490A68821A0A2A00D2C2E00860674B42CB2722D2018C58E3
:2010E0001F780025083B032F294623D83440C0467F443F797F00BF440113090F002C294617
:2011000018D1012119721861294613E0002C5BD00021197201210DE0002C294608D109E0EF
:201120001969411A1429294604D3002C00D196E000211972504B1E685C68B2581E7A032E78
:201140001DD822407E4436797600B7440110070D002A14D101221A72186110E0002A3FD0D1
:201160000020187201250AE0002A06D107E01C69041B142C03D3002A76D000251D720229C4
:2011800009D0012952D13D48012101603E487D21890001604AE00024204621462246234627
:2011A00002F0A8FA3548046035490868401E05283CD8C0467844007940008744022B212673
:2011C0001C30304A01201DE0D968411A7D24A400C834A1422946ADD3032119720221A9E71A
:2011E000DA68801A7D229200C8329042C7D3032018720225C3E7234A05201060062212E0E2
:20120000204A0320106004220DE01E4A04201060052208E01B4A02201060032203E0194A51
:201220000620106001220A6000F06AFE022D0AD0012D12D113480121416013487D21890079
:20124000016001B0F0BD11490868042801DC401C00E00120086000F053FE01B0F0BD022175
:201260001972D860294665E702221A72D86086E7A00520203C05202050052020B4052020A7
:20128000A40520209C042020AC052020C0052020FCB40124E407634002E0FCB40124E4078A
:2012A00008B41D03ED08D60D354356025F007F0D06D12C00344300D0AEE001B0FCBC7047C7
:2012C000A408254307242402FF34A74205D10020190D090501B0FCBC7047002B03D500241C
:2012E000A61BAC4125000B03DB08C20D134342024800400D07D11C00144300D08CE00EBCDB
:201300001000F0BC704701246407234307242402FF34A04205D10020090D090501B0FCBC7B
:201320007047002903D50024A21A9C412300C11B08D51C002B002500140032002600002460
:20134000611A3800362925D502B4393949420C00203C03D22F008F40374301E03700A7401A
:20136000002F01D040210E4302BC20290BD500290ED04C42203420B4A5402C0020BC0D41DC
:20138000CE40361904E000292E000D4120390E4192196B411C0014433ED00024002B04D5BF
:2013A000012400218A1A99410B00401E52005B41FBD50121890215000D400CD052180027C6
:2013C0007B4101D3401C0BE00721C90115000D4001D189008A43072109028A4352005B41CC
:2013E000801C19DD07210902FF31884209D30EBC0020C90F0902FF31C900C91D0905F0BCEC
:201400007047190B00050143E40721431805120B104301B0FCBC70470021002001B0FCBC02
:201420007047FEE7F0B58BB00492039105460446A034012660304027394602F035FD28466E
:201440000297394602F030FD08963002A021002209950A926A50554961600594A0600F2087
:20146000C64309E006988266C166361D0A9810300A90002E00D193E004988519288A039904
:201480008F19398A884201D20A4603E0388229823A8A0846510008180324214602F044FA6B
:2014A000099907968E1950217052388A298A49000818214602F038FA60217052288A02991A
:2014C0007052388A30862C8A02462243031B59425941002A089B00D00B460022002B11468A
:2014E00013D102F0B3FB06900191204602F0AEFB02460B4606980199FFF7CAFE02460B4617
:20150000059903C900F0F4FB024609980A9BC018026606904166688A798A884201D20A4695
:2015200003E0788269827A8A0846510008180324214602F0F9F952217052788A698A49003B
:201540000818214602F0F0F962217052688A42217052788A70866C8A02462243031B594279
:201560005941002A089B00D00B460022002B1146079E00D076E702F069FB05460F46204611
:2015800002F064FB02460B4628463946FFF780FE02460B46059903C900F0AAFB024661E7D8
:2015A00001200599C8720BB0F0BDC0460000B040F0B587B00690012041064203002700038B
:2015C00004900592019196E002960498306001F0A9FC054601F0A6FC451901F0A3FC451954
:2015E00001F0A0FC451901F09DFC451901F09AFC451901F097FC451901F094FC4019C008AF
:20160000072179404900069A505240490C6105980860049E0397029F3E6001F083FC05462D
:2016200001F080FC451901F07DFC451901F07AFC451901F077FC451901F074FC451901F0E0
:2016400071FC451901F06EFC4019C0080621039A51404900069C60522C4801990160059944
:2016600001613E60039F01F05DFC054601F05AFC451901F057FC451901F054FC451901F05C
:2016800051FC451901F04EFC451901F04BFC451901F048FC4019C008052179404900605240
:2016A000019E1A480661059C046102980499016001F038FC054601F035FC451901F032FC15
:2016C000451901F02FFC451901F02CFC451901F029FC451901F026FC451901F023FC22465E
:2016E0004019C008042179404900069B585231463F1D082F08D0054E0C4631603260002F7E
:2017000000D161E710365FE707B0F0BD90120A4088B002F089FA0A2002F0C4F802F086FBDC
:2017200002F03EFB012001043E4A11603E4A11603E490A6802430A607D200790800002F018
:20174000B1F83B4C204602F0D6FA204600F0B0F9384D2046294602F0BFFA2C886E88A88853
:20176000E9882F896A89AB89ED8900900191029703A82CC0304D314928462246334602F019
:2017800089F9284602F0A2F90798C00002F08AF82B492C4A2648FFF745FE6424204602F088
:2017A00081F802F06FFB02F0F1F9204602F07AF802F068FB02F0EAF9204602F073F802F0CF
:2017C00061FB02F0E3F9204602F06CF802F05AFB02F0DCF9204602F065F81B4C1B4D02F09F
:2017E0006BFA20680028FAD028680628F7D8C0467844007940008744071206060C0F0300F4
:2018000000F078FFEBE7EAE70020014601F084FAE5E700F097FEE2E700F000FFDFE700F029
:20182000B5F8DCE780E200E000E100E0045808407802202064052020000020204C40000062
:201840008405202074052020B40520209C042020F0B587B01D46164630240590047000270E
:20186000104619463A463B4601F08EFD0028019402D00120C00745400D9804900C980390CA
:201880003F4C304629463D4A234601F09BFD002809D00022304629463B4B00F029FA064672
:2018A0000D467F1CEDE70598441C0022304629460692134601F05EFD002811D10022304683
:2018C0002946304B01F060FD002809D00022304629462D4B00F0E8FC06460D467F1EE4E775
:2018E0000398C01903903046294601F029FF214601F000FE02942418C01904990860039842
:20190000471C012F1ADB3046294601F019FF02F027F902460B4630462946FFF7B9FC0022F4
:20192000194B00F0C1FC06460D4601F009FF3030611C20707F1E0C46E5D100E02146481E3F
:201940000278352A0DD3891E019C0A78521CD3B20A703A2B02D30C70491EF6E7059A91422F
:2019600004D006990170029807B0F0BD0699017004990868401C08600598F5E70000C0FF6C
:20198000FFFFDF410000F03F00002440F0B58DB03A4C02F071FA3A4D2968401A2146F931CE
:2019A000884205D902F068FA2860364864210160354E706800285ED0344F3868002803D16F
:2019C000334801210160396002F056FA0246314D3149284602F05EF8284602F077F82F48F2
:2019E000006800282BD0F920C043214601F094F905A8039006A8029007A8019008AF00974D
:201A00000CAE0BAD0AAA09AC30462946234601F0E1FB307801280FD1287801280CD12078E1
:201A2000002809D13878002806D100201B4908601B480168491C0160134E144F01E000F0E2
:201A40004FFB17490B68174A1068042B03DB401C106000220A601449096888420BDB09485C
:201A60001921090101600020306070603860084908600E4908600DB0F0BDC046EE020000D1
:201A80001C062020AC0520209C042020C8052020B005202000002020CC400000200620205F
:201AA000CC052020C4052020C0052020B805202070B582B004460646A83605464035FFF789
:201AC00077FD204622884021635A9A4203D9337801221A4305E02B8A9A4203D23278012368
:201AE0009A43327042886B889A4203D9337802221A4305E06B8A9A4203D2327802239A438F
:201B000032708288AB889A4203D9337804221A4305E0AB8A9A4203D2327804239A433270E5
:201B2000C288EB889A4203D9337808221A4305E0EB8A9A4203D2327808239A433270028914
:201B40002B899A4203D9337810221A4305E02B8B9A4203D2327810239A43327042896B8978
:201B60009A4203D9337820221A4305E06B8B9A4203D2327820239A4332708289AB899A4250
:201B800002D932780A4304E0AB8B9A4202D232788A433270C189EA89914204D932787F21D9
:201BA000C943114305E0EA8B914203D232787F211140317001466031024630320346103379
:201BC0002C6E6D6E00940195FEF762FF02B070BDF0B5A1B0049305469068002801D506203D
:201BE00090600290039200243D4F2846224606913B4601F0DDFB06990028264614D1002629
:201C0000384F284632463B4601F0C8FB069900280AD1002228460592134601F0ABFB069BC8
:201C200000282E461F4622D12F4D02F05BF901F0ABFB002809D00022304639462B4B00F0D9
:201C400033FB06460F46641EEFE7284D02F04AF901F0AEFB002807D002F044F900F048F8BB
:201C600006460F46641CF1E735463B46059407A802990091019008A82A46FFF7E9FD044624
:201C8000079D022D0DD1059D6D1C204602F0EDF82018401E0021017028460125049E039F2B
:201CA00002E0049E039F0598397B324601F0D0FCBA6820462946334601F03AFF204602F086
:201CC000D4F8854203D138680007C20F00E0012220462946334601F0E7FA21B0F0BDC0467E
:201CE0000000F07F0000F0FF0000F03F00002440FCB40C005C40E40FE40710B41D032D0BA1
:201D000056006D415F007F0D73D001246405254307242402FF34A74261D00B031B0B420087
:201D20005B414800400D64D001246405234307242402FF34A04252D0C01B00210027362445
:201D4000AB4200D1B24204D37F414941921BAB4101E07F414941641E06D0002B01D1002A6D
:201D600002D052005B41EBE7202C07D2162C0AD33900A7402026361BF1400BE0203C390025
:201D8000A140002706E0A1402026361B3D00F5402943A74001246405214202D17F0049414B
:201DA000401E00247F1C61410124A405214202D0401CA14301E06408A14303242402FF3470
:201DC000001916DD2419A04209D8CC074908000501437808204310BC2143FCBC704702BC4A
:201DE0000020C90F0902FF21C900C91D0905FCBC70470021002001B0FCBC7047F0B5394A0B
:201E00008218394BC0183A4D4C790B79002C22D0466F202B02D00524E70100E0354F2E4029
:201E2000002B00D188273E434667846F2C403C438467446B2D4E34404463846B3440846371
:201E400000244465846554688F26F643344054609468344094600C688979202B09D00646B0
:201E60007036002B15D1641E4460C46E2C40882715E0641E4460C46E2C401E4E3443C46672
:201E8000046F2C40344304671B4D01246707064607E00527FF0164084460C46E2C403C43FA
:201EA000C46634682C403C433460C46A0F4D2C40C462046B2C4004630024C4640465C46F97
:201EC0008F25ED432C40C46714682C401460194302680A4B1340BD220A40D118891C0160A5
:201EE000F0BDC04684180000041800008888FDFF24493E0001040000FFFFFFCF4000FFCFE1
:201F0000F0B583B0012872DB0546401E032101F00BFD481C0328009000D100200190354F88
:201F2000032D38D30198281A02906425032638462946324601F072FF284601F0B3FC00244E
:201F400038462146324601F069FF284601F0AAFC38462946324601F061FF284601F0A2FC13
:201F600038462146324601F059FF284601F09AFC38462946324601F051FF284601F092FC33
:201F800038462146324601F049FF284601F08AFC0298C01EC8D100980328019C27D06425D5
:201FA000032638462946324601F038FF284601F079FC00213846324601F030FF284601F001
:201FC00071FC012C13D06425032638462946324601F024FF284601F065FC00213846324682
:201FE00001F01CFF284601F05DFCA41ED7D103B0F0BDC04600008640B0B5364A80184A6858
:2020000042600A78222A56D8930001A4E3589F46AD200000B7200000AD200000B720000082
:20202000B7200000B7200000B7200000B7200000B7200000B7200000B7200000B7200000E8
:20204000B7200000B7200000B7200000B72000009D200000B72000009D200000B7200000FC
:20206000B7200000B7200000B7200000B7200000B7200000B7200000B7200000B7200000A8
:20208000B7200000B7200000B7200000B72000009D200000B72000009D2000000368032401
:2020A0002407A343012464071B1903E0036803242407A34303600B69C360CB68C46A064D17
:2020C0002540064C1C402B19C362097A11430160B0BDC046041800008888FDFF77770200C1
:2020E000F0B581B0324C2046FFF7E2FC204601F00BFFC1070027002901D03C4601E0132171
:20210000CC438107009140D5410741D5010742D5C10643D5810600D40A3441B2400600D480
:202120000F34002900D4143460B201F03DFC0146204E306800F0BBFB0546306078206043D2
:2021400001F032FC06462846394600F09FFD314600F0ADFB0546184EF057201AC00001F0A9
:2021600023FC0146284600F0A2FB347001F076FC1249086002B20520C001394600F0FEFB32
:20218000009800280ED001B0F0BD0F3C4107BDD40A3C0107BCD4641FC106BBD4641D810660
:2021A000BAD5BAE706480121016001B0F0BDC04678022020B804202026062020BC05202097
:2021C00020062020F0B581B0002941D04A1E93B2344C5C43630C03245C43121B521C93B2A8
:2021E000032B01D0144600E000242D4A032B009101D10B4629E000250B46214606E09B1EA4
:202200009761801CAD1CACB2B4421ED006781768FF0705D01768FF0702D01768FF07F6D1A4
:202220009661471C01262E43B4B28EB2B4420AD03F781468E407E2D01468E407DFD01468D4
:20224000E407F6D1DBE75B1E38460099032906D201B0F0BDDB1E9161C01C1904F8D00178F3
:202260001468E40705D01468E40702D01468E407F6D1916141781468E40705D01468E4076D
:2022800002D01468E407F6D1916181781468E407E0D01468E407DDD01468E407F6D1D9E73A
:2022A00008111040ABAA0000FCB50C005C40E40FE40710B4DD02540D2543D6025F007F0DFA
:2022C00060D00124E407254307242402FF34A74250D0CB02440D2343C2024800400D51D0CB
:2022E0000124E407234307242402FF34A04241D0C01901B41800290001F092FB0F0001B4E0
:202300001800310001F08CFB03000C001000310001F086FB06001000290001F081FB050089
:202320007618002202BC01BC55415141A419554151418024A4005B195141FF18514100D599
:2023400064003F19514102D47F00494100E0401C03242402FF34001B14DD2419A04209D888
:202360000305F80A4C0520434900090B194310BC2143FCBD0020FF21C900C91D090510BC34
:202380002143FCBD0021002001B0FCBDF0B584B03049314A0125AC0316682B0203939E43B1
:2023A00016600E68264205D10E68264202D10E682642F6D06C02467E9769AF432E40BD1936
:2023C00095612025455DD6690327BE433D407519D561224D2E680727374005262E60466A62
:2023E00033681362736853622F60C3695B065B0CD5697F263602B543EB18D361E8C8009729
:2024000007680197476802971B071B0B2D03ADB2ED1833071B0D007A009E35431D43019BA3
:202420001D43029B1D43054390690D4B03400D482840C01890611068039B1843106008688C
:20244000204205D10868204202D108682042F6D004B0F0BD04020B4008010B40001340406E
:202460008D00F0FF72FF0F0070B52E4984200863012422062C4802600A1F862313606504E4
:202480002A4A15600D46083D85262E60250415608B61630513608823CB61A3051360244BBC
:2024A000DD1C0D605E1C234D2E600E68640626430E602E6826432E6082246C641E4EAE6406
:2024C000EC642E658124EC622C63EB604B632E46083E34602E460C3E34606C65AC650C61AF
:2024E0004C610D46103D2B600D460C3D2B60CC630B46143B1C6018390C60114630390F4BBB
:202500000B601146403903240C60D91C1160014630390C220A6001464039094A0A600C3284
:20252000026070BDA0804240D0320A40D0120A4081000C001080424082000400003000029B
:2025400000030C00F0B58DB02A4C2068002803D129480121016021602848006800282AD021
:20256000F920C043264900F0D7FB05A8039006A8029007A8019008AF00970CAE0BAD0AAADA
:2025800009AC30462946234600F024FE307801280FD1287801280CD12078002809D1387885
:2025A000002806D100201549086016480168491C0160104C01E0FFF793FD12490B68124ABC
:2025C0001068042B03DB401C106000220A600F49096888420CDB0E481921090101600D4854
:2025E0000021016001612160034801600A4801600DB0F0BDD8052020B00520202006202035
:20260000EE020000DC052020D4052020D0052020AC0520209C042020B8052020F0B58DB0CB
:202620002A4C2068002803D129480121016021602848006800282AD0F920C043264900F0B6
:202640006BFB05A8039006A8029007A8019008AF00970CAE0BAD0AAA09AC304629462346DD
:2026600000F0B8FD307801280FD1287801280CD12078002809D13878002806D10020154997
:20268000086016480168491C0160104C01E0FFF727FD12490B68124A1068042B03DB401CE3
:2026A000106000220A600F49096888420CDB0E481921090101600D480021016041612160AF
:2026C000034801600A4801600DB0F0BDE8052020B005202020062020EE020000EC05202088
:2026E000E4052020E0052020AC0520209C042020B8052020F0B58DB02A4C2068002803D1E2
:2027000029480121016021602848006800282AD0F920C043264900F0FFFA05A8039006A8E8
:20272000029007A8019008AF00970CAE0BAD0AAA09AC30462946234600F04CFD3078012846
:202740000FD1287801280CD12078002809D13878002806D100201549086016480168491C98
:202760000160104C01E0FFF7BBFC12490B68124A1068042B03DB401C106000220A600F49AF
:20278000096888420CDB0E481921090101600D480021016081612160034801600A48016083
:2027A0000DB0F0BDF8052020B005202020062020EE020000FC052020F4052020F005202078
:2027C000AC0520209C042020B8052020F8B515462A4E0A0D771C3A40294B9A4213D00C4602
:2027E000002A18D10122D2079443044344D00022244BFFF759FD0C4623498D4208DC234ADD
:20280000234B214636E002460B46FEF746FDF8BD220D3A40363A5119B1420ADD01F06CFB92
:20282000222101600120C00704401D4821180020F8BD012904DB174A144009052143F8BD70
:202840003522D24391420CDC01F056FB2221016012488542E6DA0120C007044000202146D7
:20286000F8BD0C4A144009051B225205891821430022094BFFF718FDF8BDC046FE07000011
:20288000FF07000000005043AF3CFFFF59F3F8C21F6EA501FFFF0F800000903C51C3000010
:2028A0000000F07FFCB40127FF07794002E0FCB40127FF070C024D002D0E03D1002C52D199
:2028C000FCBC70473C43FF2D50D0A408002900D56442020243001B0E04D1002A43D10800E3
:2028E000FCBC70473A43FF2B41D09208002800D552425E1B04D5170022003C0076422B00DC
:20290000192E06D527003741D2191C27F71B7F42BC40002A27D002D55242012700E000273E
:20292000013B5200FCD51500802635400FD01500202635402C43803208D21500402635406E
:202940002C4304D101263602B24300E05B1C5200023308DDFF2B0BD2500ADB051843FF077A
:202960003843FCBC70470020FCBC70470800C70FFF07FF20C0053843FCBC7047F0B581B056
:20298000014311433DD004467D20C700104601F00BF8214900F046FA204900F077F90546EC
:2029A000204601F001F8064628463146FFF77FFF01F054F804461A4804601A480460304699
:2029C0002946FFF76FFF01F049F817490860174A1060BC423B4602DC0E4B9C4204DA104C8B
:2029E0002360104C23601C46B84202DC094FB84202DA0F601760384621B202B2084613467B
:202A000003E0002001460246034601F053FA01B0F0BDC04618FCFFFF00007A4400003C43EA
:202A200000062020040620200C06202010062020F0B58B4200D1824204D90B00020000214C
:202A4000002040E0002B00D1002A0CD10B00020000210020002B00D1002A01D0C943C043DF
:202A600000F055FC2FE01C0015000B0002000CB4002126002F00FF19764102D2491C402921
:202A8000F9D100201E001700FF19764102D2401C4028F9D10E1A21002800320001F03AF91F
:202AA0000C0005000CBC00200021A34200D1AA4201D3521BA341404149416D08E7073D4347
:202AC0006408761EF1D5059F002F01D03A607B60F0BD002A49D084468B071CD1830722D161
:202AE000102A08D370B4103A78C978C0103AFBD270BC103238D0042A2CD3082A05D30C2AE0
:202B000001D308C908C008C908C008C908C092072AD0920F22E00B780370491C401C521EB9
:202B200022D08B07F7D1C30714D18307D8D0121F12D308C903801B0C4380001D121FF8D2FC
:202B40000AE008C903701B0A43701B0A83701B0AC370001D121FF4D2121D05D00B780370F1
:202B6000491C401C521EF9D160467047F0B581B01648174A42601748426017484260174865
:202B8000426017484260174E7260174F7A60174C6260174B5A6017494A6017484260174A6E
:202BA0000A4D2A600B4D2A600B4D2A600B4D2A600B4D2A6032603A6022601A600A600260B8
:202BC000102001F07CF901B0F0BDC04600080A40030000B100280A400008864000A8864047
:202BE00000288640008886400048084000280F4000881040000810400008004001000026F3
:202C000070B582B01B491C4C204601F0A1F81B492046FFF7F3F81A4801681A4A0A4002601B
:202C200000250095204629462A462B4601F0ACF8204629462A4601F07DF8204629462A469F
:202C400001F0ECF801260096204629462A462B4601F09AF820462946324601F06BF82046A2
:202C60002946324601F0DAF8074886600321016002B070BD6D40000000808640E8400000F6
:202C8000049886407F00FFFF00918640FCB40127FF0706004E4001D4002600E03E0002026F
:202CA00043001B0E30D03A43FF2B30D00C024D002D0E29D03C43FF2D29D05B194240504048
:202CC00042404C4061404C4000B500F0A9FE20BCAE464240504042404C4061404C4025002B
:202CE0001400002C01D46400013B803401D3013364087E3B08DDFF2B09D2BC43200ADB054B
:202D000018433043FCBC70470020FCBC7047FF20C0053043FCBC7047F0B581B00C461B4E90
:202D20003746103700283A4600DA32460028334600DA3B46C1174840411A0125280210605E
:202D4000680218601248814200DB0146114801601148002201F062F8002C304600DA3846D8
:202D6000002C00DA3746E1174C40611AAA040260E80438600648814200DB0146074801605A
:202D800005482A4601F04AF801B0F0BD90320A40E703000008062020008086401406202001
:202DA000B0B51949194C204601F026F81849204600F0ECFC174802680321CB039A430260D9
:202DC0000269154B13409A1C026142690B2313433422934343614368012213404468944319
:202DE000E31843600D4B1C68950225431D600C4B1C68FF252D06AC438907611819600168D1
:202E000011430160B0BDC0460A41000000801040C2400000009110400000FFFF2890104086
:202E20000CE400E0FCB40127FF0706004E40F60FF607020243001B0E2DD03A43FF2B2DD03D
:202E40000C024D002D0E26D03C43FF2D26D05B1B0020202164085208A2424041A24200D38C
:202E6000121B013904D0002A01D05200F4D18840384201D14000013B803001D3013300E0DD
:202E800040007F3307DDFF2B08D2400ADB0518433043FCBC70470020FCBC7047FF20C0057E
:202EA0003043FCBC70477047F8B5451C00780023082B32D02F78C2070CD16A780F241440E5
:202EC000E41C122C0BD102242E57F4B2002E08D4EE1C0EE06D1C4A1C0F7011461AE0AE1CFC
:202EE00008E02E1DED7800957F252C40009DED012C1912343D0112095219094DAA420ED09B
:202F0000D243002C05D08D5C4F1C0D70641E3946F7E7354640085B1CCAE72846C5E7F8BD31
:202F2000FF0F0000B0B51A491A480122036813430360436814021C434460002302E0DB1C52
:202F4000012C19D00C68002C16D00C68622B01D8002500E00125002C144600D02C46002CDC
:202F60000AD10C68612B01D8002500E00125002C1446E4D02C46E2E7416801221302994340
:202F800041600168914301600348006880B2B0BD40130040001100408062554070B582B0EE
:202FA0001549164C204600F0D3FE15492046FEF725FF14480168144A0A40DB21C9015118B1
:202FC0000160032500950026204631463246334600F0DAFE204631462A4600F0ABFE2046CB
:202FE00031462A4600F01AFF0848012181600821016002B070BDC0462140000000008640F8
:20300000E0400000041886407F00FFFF0011864070B582B01449154C204600F099FE1449FB
:203020002046FEF7EBFE13480168134A0A404921C901511801600125009500262046314625
:203040003246334600F0A0FE204631462A4600F071FE0A4920462A4600F0E0FE0848856019
:203060000221016002B070BDD540000000208640F0400000043886407F00FFFF102700000C
:2030800000318640FEB502930F46194D0024E143184E00973740019043422B46BB4101D224
:2030A0000C4623E0084602990E405342B54101D204461BE0134601990B433E431E43029D1F
:2030C000009E13D02B46334004D401998B1A3346AB4103E00199531A2B46B341044605DB96
:2030E00051406E400E43701E864134462046FEBD0000F07FFFFFFF7F10B51549154C20467B
:2031000000F07AFE1449204600F040FB134801680322D203914301600169114A0A40911CAA
:20312000016141690B220A4334218A434261416801221140436893435918416009490B68CF
:2031400094021C430C6001681143016010BDC0460641000000001040B8400000001110402D
:203160000000FFFF28101040B0B582B01249134C204600F0EDFD12492046FEF73FFE1148EC
:203180000168114A0A40026000250095204629462A462B4600F0F8FD204629462A4600F035
:2031A000C9FD0A4920462A4600F038FE084801218160016002B0B0BD0041000000A0864080
:2031C000F840000004B886407F00FFFF1027000000B18640F0B585B0029315460E4607469F
:2031E0000D9804900C9803900B9801900A980090124C2046FEF75CFC204600F085FE0121ED
:20320000014039708107C90F31704107C90F29700107C90F029A1170C106C90F009A117053
:203220008106C90F019A11704106C90F039A1170C0090499087005B0F0BDC04678022020D6
:20324000F8B50446164F174D0E462E400120009464423C46B4411AD31D405442AF4116D361
:203260001046009C20433543054311D00020C0431C460C400ED4009CA41A0C469C4106DB3B
:203280000098504059400143481E81410846F8BD0020F8BD009C141B1C468C41F0DAF6E788
:2032A0000000F07FFFFFFF7FF8B51C4617460E46054600F0DAFD0021012E03DBB04201DB55
:2032C000A919491E002F04D02268531E23602E2313703246824206DD23685F1E276030276B
:2032E0001F70521EF6E7B04200DB3046012808DBA9420BD308782268531E23601070491EF5
:20330000F6E72068411E216030210170F8BD704770B5154800240460144D28680F21090204
:2033200088430126710240182860281F01680322D2430A4002606868B04368606868310224
:20334000884368600A48FFF721F828681021014320208143296028683103014329602046F0
:2033600000F05CFA70BDC04608030B4004010B402440000010B5FFF763FF002801D0002094
:2033800010BD012010BDC04610B5FFF759FF002801DB002010BD012010BDC04610B5FFF7B9
:2033A0004FFF002801DD002010BD012010BDC04610B5FFF767FE002801DA002010BD0120A7
:2033C00010BDC04610B5FFF75DFE002801DC002010BD012010BD8446830706D0002A29D0D7
:2033E00001700130013A8307F8D1042A1CD30906090E0B0219430B041943082A10D30B0066
:20340000102A09D370B40F24161B22400C000D003AC0103EFCD870BC082A01D30AC0083A39
:20342000042A01D302C0043A002A03D0013A8154013AFCD26046704780B5FFF797FBFFF764
:2034400013F8FFF765FFFFF7A9FDFFF78DFEFFF7DFFDFFF7D5FB00F0BDF900F0CFF8FFF7FF
:203460009FFCFFF749FE00F04BFB00F07FFC0648B8210022425405489C23C25404484254F0
:203480000448C25480BDC04600012020C8032020BC0120202803202070B514460F4D0B46A7
:2034A0002B40002222600E4EB34215D81E46064312D01E0D07D100220A4BFEF7F5FE0D4081
:2034C0003522D2432B461B0D9A18074BD2182260064A0A400649511870BDC046FFFFFF7F76
:2034E000FFFFEF7F0000504302FCFFFFFFFF0F800000E03FF0B587B00191064602AD00209C
:20350000E874123537460A243846214600F04AF84443391BCA175140891A3031297009371C
:203520006D1E122F0746EED8002E01D46D1C01E02D20287002A8441B22461432019829469B
:2035400000F0DEFC1334204607B0F0BDF0B5FFB086B01C4615460246A868002801D50620CD
:20356000A8602368039304AB0090019305A80B46FEF76EF90646049FAA683946234600F01C
:20358000D7FA20680399814201D0012202E028680007C20F304639462346FFF785FE7FB02F
:2035A00006B0F0BD1CB5002922D04C08002900D5494242105440002800D5404200230A004D
:2035C000904201D95200FBE790425B41904200D3801A914201D25208F6E71900002C00D567
:2035E0004042640000D549420200080011001CBD01000020FFF757FC1CBD000080B51149BF
:20360000114800F0EBFA11480168032252020A430260026801210B0213430360002242617B
:2036200009224262826B07239A438263826B1B029A438263826A042313438362826A0A438F
:20364000826280BD0841000000200F4000320F407CB515460C460646C01731464140081AF5
:20366000009200210A226423FDF7C0F930460930122808D8DF202040502804D02868411ED4
:20368000296030210170002E01D42B2000E02D2029684A1E2A6008702868411E296004707D
:2036A0007CBD0000B0B5104C2168104D287800290ED0002808D100F0F1FB0D4864210322A7
:2036C00000F0ACFB012028702068401E2060B0BD002808D000F0DCFB054800240322214603
:2036E00000F09CFB2C70B0BDAC052020270620200000864070B582B00D46064600920193FA
:203700000D4C0E49204632462B4600F0C3F90020215C00290AD021184A78002A05D0897863
:20372000C01C0029F4D1401E00E0401C81B20248FEF748FD02B070BD68042020844000001F
:203740000CB54A00520D03231B02FF33D21A13D31F239A1A12D98E46C9020123DB071943D6
:20376000D1400B2A02D21532D04001437346002B00D5494208000CBD00200CBD0B0001206A
:20378000C007002B00D401380CBD000070B511221302C218C4580125AC43C4500C888D783C
:2037A00025438C882C43C558084E2E40084D25407419C4508879CB790343087A18435168C1
:2037C0007E23994318400818506070BDE798FDFF1867000010B50B490B4C204600F0B8FAA5
:2037E0000A492046FEF708FC0948016801221143016008480168FF239943016006480260BD
:2038000010BDC0460341000000400840704000002850084010E400E00851084010B50E4908
:203820000E4A01235C0590600868204205D10868204202D108682042F6D010681B040343F9
:2038400013600868C00605D40868C00602D40868C006F6D510BDC04604020B4004010B4065
:203860000B480068C0B20B2810D10A4800680A490A887E2A05D80A88531C0B80074988542B
:2038800001E0002008800648012101707047C046209010402491104024062020BC04202092
:2038A00029062020B0B50E490E4A42430B68262006E00D1F2D68E41A6419201890420DD23C
:2038C0001C460B68A34205D10B68A34202D10B68A342F6D09C42ECD9E41AEEE7B0BDC04626
:2038E00018E000E080380100F0B511221302C2180C780B4D46590B4F374003262640BC19C0
:20390000A9263606A41944514C68C55807263606B54334402C19C45048781061F0BDC04667
:2039200008080000FCFFFF001CB50A0017D000230124E407A04200D20400944201D95200CE
:20394000FBE790425B41904200D3801A914201D25208F6E719000200080011001CBD0100ED
:203960000020FFF7A0FA1CBD10B50E4902788B185B78401CDB06F9D400212D2A04D02B2A07
:2039800002D0401E134600E00378303B092B04D80A244C431919401CF6E72D2A00D14942ED
:2039A000084610BD203F000006B49E22002802D404D106BC7047414204D400E00100013A50
:2039C0004900FCD5803101D3013200E04900490AD2051143002802D50122D2071143080017
:2039E00006BC704770B50A480A4C84420CD00A4D0A4EB54208D02A686968501C1278920076
:203A0000A25890470835F4E700BF00BF70BDC04650410000444100005841000068410000B4
:203A2000FCB4020C0B0CFF242402FF34204021400C00444315005D4306005E430F005743DC
:203A4000320C3B0CA818C01832043B040025A1186841C9186841FCBC7047000006B5410058
:203A6000090E7F390DD41F22511A0CD9864600020122D2071043C8407246002A00D54042A7
:203A800006BD002006BD02000120C007002A00D4401E06BD82B0F8B5069207930291019042
:203AA00006A9039107480090074B02A801AAFCF707FB019900220A7004B080BC02BC02B0B2
:203AC0000847C046B93D0000EF3E0000002813D00178002910D0094A1368DB0705D01368E1
:203AE000DB0702D01368DB07F6D1431C916103D0417800291846EFD17047C0460891104024
:203B000010B508490124A007FFF7EEFE0648002101607D2000010549486108682043086041
:203B200010BDC046D84000008011004000110040F8B51C4615460646571800F096F9711E45
:203B4000012D0CDB3022012F02DB874200DCCA5D23685E1E26601A707F1E6D1EF0E7F8BD5A
:203B600004B40422002802D1002104BC704701D50832404212021F320100521E4900FCD354
:203B80000805090B1205114304BC7047B0B5074C2578002D01D1642100E0002104480322D7
:203BA00000F03CF9012045402570B0BD2806202000008640084880F3088800BF00BF00F043
:203BC000ADF9002801D0FFF70DFF0020FDF7A0FD012000F09CF9C0460080202070B50122DF
:203BE000120383180C785D680C26B54334402C195C60497883580724A343214059188150DD
:203C000070BD000080B506480068C0B2012805D1FFF748FD03480168491C016080BDC04623
:203C2000205008401806202080B5FFF705FC0120C103044A116040031060034A11601060BD
:203C400080BDC04680E200E000E100E0002801D10021704704B4042212021F320100521E98
:203C60004900FCD30805090B1205114304BC704730B514004C4325001C0044436419050057
:203C800010002900FFF7CCFE001904000D002100280030BDB0B504460020002B08D0D2B275
:203CA0000D782570954204D0641C491C5B1EF7D1B0BD601CB0BD0000B0B500F0DDF804464F
:203CC000044D03CD611A083D814202D3A86880476C60B0BD94052020B0B50C460546FDF78C
:203CE00067FC10222046294600F00AF9AB20285C411E8841B0BDB0B5044660304025294670
:203D000000F0D2F82046294600F0CEF8A82000212150B0BD18B520239B1A04D801000020D5
:203D20005B42994004E004009140DC402143904018BD000010B592008018044A83580724EC
:203D4000A404A34321405918815010BD3018000010B50122120383180C789C604B7883506F
:203D60008978014A815010BD0C1100000548042101604F21416000218160016805220A4379
:203D80000260704710E000E010B5029CA400001911431943014A815010BDC0465018000013
:203DA00004480021016041608160C16001614161816170479C042020B0B514460D460146BC
:203DC000286800F09DF82868001928602046B0BD40B584B002AE0096FEF72AFE029A039B04
:203DE00004B040BDC9B202788A4204D0002A01D0401CF8E70020704710B5012212038318D8
:203E00000C789C604978815010BD80B50B4603214258C11D184600F073F880BD9200801881
:203E2000014A81507047C046101800000248016801220A43026070470418864000214258A8
:203E4000091D002AFBD1081F8010704780B50A4603214158104600F027F880BD0B4611464C
:203E60001A4680B5FFF7B7FA80BD0021425C491C002AFBD1481E7047014800687047C04624
:203E8000180620200148082101607047B0320A400148042101607047A0320A4001480421FE
:203EA0000160704790320A400A46002180B5FFF792FA80BD80B51146FEF72EFF80BD811EEF
:203EC000091F00BFFCD2704702460B462046294600E0000082B00094014C019410BD00BFF4
:203EE000911200000022304639462B4670470A68531C0B601070704700487047A805202071
:203F000080B5FEF7E6FD80BDA821405C704700F001F8FEE700BF70474CE670470120704736
:203F20000080808080808080808090909090908080808080808080808080808080808080B1
:203F4000801804040404040404040404040404040402020202020202020202040404040465
:203F6000040443434343434341414141414141414141414141414141414141410404040483
:203F80000404232323232323212121212121212121212121212121212121212104040404A3
:203FA000800000000000000000000000000000000000000000000000000000000000000081
:203FC0000000000000000000000000000000000000000000000000000000000000000000E1
:203FE0000000000000000000000000000000000000000000000000000000000000000000C1
:204000000000000000000000000000000000000000000000000000000000000000000000A0
:204020000008010F0100000000000000000000000000000000000000100000000000000057
:2040400004000000000000003400C441416E6F6C6F672025642D25642D25642D25642D25A6
:20406000642D25642D25642D25640D0A0008070002000000871300000000000000000000F8
:20408000000000002470776D3A25642C25642C25642C256423003031323334353637383996
:2040A0004142434445460030313233343536373839616263646566000000180000000030C1
:2040C00000000000180000000030000071312C2025640D0A0008009F01050000000000035A
:2040E000E803000020010000E80300002001010010270000200101001027000020010100F5
:1041000008009F08070004000800040000000000E9
:2041100000DD00000F6F0A4004013F0100006D8009AF0BE803001BC409001B2D640D84C124
:20413000100E13010E8F1902BD010201FF0D143F18FFF000A92E00000B3E00004D3E0000B3
:1841500002000000BC04000010410000BC042020504100000000202073
:00000001FF
